SAHD 00000000     20081812274400000            SHARP                                                                            
SA02100010001        20200818            20200818             000000000000000000000000002008180000000016787SHANGHAI Y           
SA02200010002 20081820081820200818                 SHA 20200818  20186SHARP200818200818         20200818                        
SA023000100030000000000000LS040L0000000016787LS040L0000000016787LUSD2008180000000000000                                         
SA03 00010004 5329261OSK SFFOB         t20200818 100  0000000016787L5110000000000000000000000000000000000000000000000000000YB   
SA04100010005C2020081  A1AUJ28DY     00000000100000016787000000001678700532926199999   0000101000000000000000000000000000000000 
SA04200010006       000000292       000000292       000000292       000000292       000000292000000000000000000000000000000     
SA05 00010007C                 000100010000000010000000000000000000000000                                                       
SA99 0000000000007                                                                                                              
